{
  "_format": "hh-sol-artifact-1",
  "contractName": "Decentram",
  "sourceName": "contracts/Decentram.sol",
  "abi": [
    {
      "anonymous": false,
      "inputs": [
        {
          "indexed": true,
          "internalType": "uint64",
          "name": "id",
          "type": "uint64"
        },
        {
          "indexed": false,
          "internalType": "address",
          "name": "owner",
          "type": "address"
        }
      ],
      "name": "NewPost",
      "type": "event"
    },
    {
      "anonymous": false,
      "inputs": [
        {
          "indexed": true,
          "internalType": "uint64",
          "name": "id",
          "type": "uint64"
        },
        {
          "indexed": false,
          "internalType": "address",
          "name": "reactor",
          "type": "address"
        },
        {
          "indexed": false,
          "internalType": "bool",
          "name": "like",
          "type": "bool"
        }
      ],
      "name": "Reaction",
      "type": "event"
    },
    {
      "inputs": [
        {
          "internalType": "string",
          "name": "_title",
          "type": "string"
        },
        {
          "internalType": "string",
          "name": "_description",
          "type": "string"
        }
      ],
      "name": "createPost",
      "outputs": [],
      "stateMutability": "nonpayable",
      "type": "function"
    },
    {
      "inputs": [],
      "name": "postCount",
      "outputs": [
        {
          "internalType": "uint64",
          "name": "",
          "type": "uint64"
        }
      ],
      "stateMutability": "view",
      "type": "function"
    },
    {
      "inputs": [
        {
          "internalType": "uint64",
          "name": "",
          "type": "uint64"
        }
      ],
      "name": "posts",
      "outputs": [
        {
          "internalType": "uint64",
          "name": "id",
          "type": "uint64"
        },
        {
          "internalType": "address",
          "name": "owner",
          "type": "address"
        },
        {
          "internalType": "string",
          "name": "title",
          "type": "string"
        },
        {
          "internalType": "string",
          "name": "description",
          "type": "string"
        },
        {
          "internalType": "uint32",
          "name": "likes",
          "type": "uint32"
        },
        {
          "internalType": "uint32",
          "name": "dislikes",
          "type": "uint32"
        },
        {
          "internalType": "uint256",
          "name": "postTime",
          "type": "uint256"
        }
      ],
      "stateMutability": "view",
      "type": "function"
    },
    {
      "inputs": [
        {
          "internalType": "uint64",
          "name": "_id",
          "type": "uint64"
        },
        {
          "internalType": "bool",
          "name": "_like",
          "type": "bool"
        }
      ],
      "name": "reactOnPost",
      "outputs": [],
      "stateMutability": "nonpayable",
      "type": "function"
    },
    {
      "inputs": [
        {
          "internalType": "uint64",
          "name": "_id",
          "type": "uint64"
        }
      ],
      "name": "reactionOf",
      "outputs": [
        {
          "internalType": "int8",
          "name": "",
          "type": "int8"
        }
      ],
      "stateMutability": "view",
      "type": "function"
    }
  ],
  "bytecode": "0x608060405260008060006101000a81548167ffffffffffffffff021916908367ffffffffffffffff16021790555034801561003957600080fd5b506110f7806100496000396000f3fe608060405234801561001057600080fd5b50600436106100575760003560e01c806317906c2e1461005c578063392338f51461007a5780635a7ca7e61461009657806366306276146100cc578063bf464099146100fc575b600080fd5b610064610118565b6040516100719190610d95565b60405180910390f35b610094600480360381019061008f9190610aec565b610130565b005b6100b060048036038101906100ab9190610b58565b610392565b6040516100c39796959493929190610db0565b60405180910390f35b6100e660048036038101906100e19190610b58565b610538565b6040516100f39190610d3a565b60405180910390f35b61011660048036038101906101119190610b81565b610636565b005b60008054906101000a900467ffffffffffffffff1681565b60008081819054906101000a900467ffffffffffffffff168092919061015590610fc4565b91906101000a81548167ffffffffffffffff021916908367ffffffffffffffff160217905550506040518060e0016040528060008054906101000a900467ffffffffffffffff1667ffffffffffffffff1681526020013373ffffffffffffffffffffffffffffffffffffffff168152602001838152602001828152602001600063ffffffff168152602001600063ffffffff16815260200142815250600160008060009054906101000a900467ffffffffffffffff1667ffffffffffffffff1667ffffffffffffffff16815260200190815260200160002060008201518160000160006101000a81548167ffffffffffffffff021916908367ffffffffffffffff16021790555060208201518160000160086101000a81548173ffffffffffffffffffffffffffffffffffffffff021916908373ffffffffffffffffffffffffffffffffffffffff16021790555060408201518160010190805190602001906102bf9291906109b7565b5060608201518160020190805190602001906102dc9291906109b7565b5060808201518160030160006101000a81548163ffffffff021916908363ffffffff16021790555060a08201518160030160046101000a81548163ffffffff021916908363ffffffff16021790555060c0820151816004015590505060008054906101000a900467ffffffffffffffff1667ffffffffffffffff167ff28eb79b5eb07253dffddf764a930ff8a9da84ae0fef1463f81140f9c3333e96336040516103869190610cf6565b60405180910390a25050565b60016020528060005260406000206000915090508060000160009054906101000a900467ffffffffffffffff16908060000160089054906101000a900473ffffffffffffffffffffffffffffffffffffffff16908060010180546103f590610f65565b80601f016020809104026020016040519081016040528092919081815260200182805461042190610f65565b801561046e5780601f106104435761010080835404028352916020019161046e565b820191906000526020600020905b81548152906001019060200180831161045157829003601f168201915b50505050509080600201805461048390610f65565b80601f01602080910402602001604051908101604052809291908181526020018280546104af90610f65565b80156104fc5780601f106104d1576101008083540402835291602001916104fc565b820191906000526020600020905b8154815290600101906020018083116104df57829003601f168201915b5050505050908060030160009054906101000a900463ffffffff16908060030160049054906101000a900463ffffffff16908060040154905087565b60008160008167ffffffffffffffff1611801561057d575060008054906101000a900467ffffffffffffffff1667ffffffffffffffff168167ffffffffffffffff1611155b6105bc576040517f08c379a00000000000000000000000000000000000000000000000000000000081526004016105b390610d75565b60405180910390fd5b600260008467ffffffffffffffff1667ffffffffffffffff16815260200190815260200160002060003373ffffffffffffffffffffffffffffffffffffffff1673ffffffffffffffffffffffffffffffffffffffff16815260200190815260200160002060009054906101000a900460000b915050919050565b8160008167ffffffffffffffff16118015610679575060008054906101000a900467ffffffffffffffff1667ffffffffffffffff168167ffffffffffffffff1611155b6106b8576040517f08c379a00000000000000000000000000000000000000000000000000000000081526004016106af90610d75565b60405180910390fd5b6000600260008567ffffffffffffffff1667ffffffffffffffff16815260200190815260200160002060003373ffffffffffffffffffffffffffffffffffffffff1673ffffffffffffffffffffffffffffffffffffffff16815260200190815260200160002060009054906101000a900460000b60000b1461076f576040517f08c379a000000000000000000000000000000000000000000000000000000000815260040161076690610d55565b60405180910390fd5b811561086457600160008467ffffffffffffffff1667ffffffffffffffff168152602001908152602001600020600301600081819054906101000a900463ffffffff16809291906107bf90610f97565b91906101000a81548163ffffffff021916908363ffffffff160217905550506001600260008567ffffffffffffffff1667ffffffffffffffff16815260200190815260200160002060003373ffffffffffffffffffffffffffffffffffffffff1673ffffffffffffffffffffffffffffffffffffffff16815260200190815260200160002060006101000a81548160ff021916908360000b60ff16021790555061096e565b600160008467ffffffffffffffff1667ffffffffffffffff168152602001908152602001600020600301600481819054906101000a900463ffffffff16809291906108ae90610f97565b91906101000a81548163ffffffff021916908363ffffffff160217905550507fffffffffffffffffffffffffffffffffffffffffffffffffffffffffffffffff600260008567ffffffffffffffff1667ffffffffffffffff16815260200190815260200160002060003373ffffffffffffffffffffffffffffffffffffffff1673ffffffffffffffffffffffffffffffffffffffff16815260200190815260200160002060006101000a81548160ff021916908360000b60ff1602179055505b8267ffffffffffffffff167f1b0d7b6b09952edcf0473c46cd4021c0300ab0198111f37ffd8dbe1ead2e863733846040516109aa929190610d11565b60405180910390a2505050565b8280546109c390610f65565b90600052602060002090601f0160209004810192826109e55760008555610a2c565b82601f106109fe57805160ff1916838001178555610a2c565b82800160010185558215610a2c579182015b82811115610a2b578251825591602001919060010190610a10565b5b509050610a399190610a3d565b5090565b5b80821115610a56576000816000905550600101610a3e565b5090565b6000610a6d610a6884610e5e565b610e2d565b905082815260208101848484011115610a8557600080fd5b610a90848285610f23565b509392505050565b600081359050610aa781611093565b92915050565b600082601f830112610abe57600080fd5b8135610ace848260208601610a5a565b91505092915050565b600081359050610ae6816110aa565b92915050565b60008060408385031215610aff57600080fd5b600083013567ffffffffffffffff811115610b1957600080fd5b610b2585828601610aad565b925050602083013567ffffffffffffffff811115610b4257600080fd5b610b4e85828601610aad565b9150509250929050565b600060208284031215610b6a57600080fd5b6000610b7884828501610ad7565b91505092915050565b60008060408385031215610b9457600080fd5b6000610ba285828601610ad7565b9250506020610bb385828601610a98565b9150509250929050565b610bc681610eaa565b82525050565b610bd581610ebc565b82525050565b610be481610ec8565b82525050565b6000610bf582610e8e565b610bff8185610e99565b9350610c0f818560208601610f32565b610c1881611082565b840191505092915050565b6000610c30602583610e99565b91507f596f75206861766520616c72656164792072656163746564206f6e207468697360008301527f20706f73740000000000000000000000000000000000000000000000000000006020830152604082019050919050565b6000610c96601c83610e99565b91507f4e6f20506f737420697320666f756e6420627920746869732069642e000000006000830152602082019050919050565b610cd281610ef5565b82525050565b610ce181610eff565b82525050565b610cf081610f0f565b82525050565b6000602082019050610d0b6000830184610bbd565b92915050565b6000604082019050610d266000830185610bbd565b610d336020830184610bcc565b9392505050565b6000602082019050610d4f6000830184610bdb565b92915050565b60006020820190508181036000830152610d6e81610c23565b9050919050565b60006020820190508181036000830152610d8e81610c89565b9050919050565b6000602082019050610daa6000830184610ce7565b92915050565b600060e082019050610dc5600083018a610ce7565b610dd26020830189610bbd565b8181036040830152610de48188610bea565b90508181036060830152610df88187610bea565b9050610e076080830186610cd8565b610e1460a0830185610cd8565b610e2160c0830184610cc9565b98975050505050505050565b6000604051905081810181811067ffffffffffffffff82111715610e5457610e53611053565b5b8060405250919050565b600067ffffffffffffffff821115610e7957610e78611053565b5b601f19601f8301169050602081019050919050565b600081519050919050565b600082825260208201905092915050565b6000610eb582610ed5565b9050919050565b60008115159050919050565b60008160000b9050919050565b600073ffffffffffffffffffffffffffffffffffffffff82169050919050565b6000819050919050565b600063ffffffff82169050919050565b600067ffffffffffffffff82169050919050565b82818337600083830152505050565b60005b83811015610f50578082015181840152602081019050610f35565b83811115610f5f576000848401525b50505050565b60006002820490506001821680610f7d57607f821691505b60208210811415610f9157610f90611024565b5b50919050565b6000610fa282610eff565b915063ffffffff821415610fb957610fb8610ff5565b5b600182019050919050565b6000610fcf82610f0f565b915067ffffffffffffffff821415610fea57610fe9610ff5565b5b600182019050919050565b7f4e487b7100000000000000000000000000000000000000000000000000000000600052601160045260246000fd5b7f4e487b7100000000000000000000000000000000000000000000000000000000600052602260045260246000fd5b7f4e487b7100000000000000000000000000000000000000000000000000000000600052604160045260246000fd5b6000601f19601f8301169050919050565b61109c81610ebc565b81146110a757600080fd5b50565b6110b381610f0f565b81146110be57600080fd5b5056fea264697066735822122016bd0975a71df09b81aea475797d7489cd495e5f270d15eb6e5af20deed4bf2a64736f6c63430008000033",
  "linkReferences": {},
  "deployedLinkReferences": {}
}